<?xml version="1.0" encoding="utf-8"?><root><child><![CDATA[M50400000000AMI MRU 04AMI15Z              5052328                                                               03530470  1NXX XXX                                                      #
M51220180112AMI MRU 12AMI12Z              5052677                                                               07092018  1NXX XXX                                                      #
M51120180111AMI MRU 11AMI11Z              5052497                                                               07092126  1NXX XXX                                                      #
M51120180111AMI MRU 11AMI11Z              5052617                                                               07092159  1NXX XXX                                                      #
M51520180115AMI MRU 15AMI15Z              1183161                                                               08423320  1NXX NNN                                                      #
M50600000000AMI MRU 06AMI06Z              5052472                                                               08423341  1NXX XXX                                                      #
M51220180112AMI MRU 12AMI12Z              1184037                                                               08423361  1NNN NNN                                                      #
M50700000000AMI MRU 07AMI07Z              1183789                                                               08423381  1NNN NNN                                                      #
M50600000000AMI MRU 06AMI06Z              1183788                                                               08423400  1NNN NNN                                                      #
M50800000000AMI MRU 08AMI08Z              1183790                                                               08423420  1NNN NNN                                                      #
M50900000000AMI MRU 09AMI09Z              1183981                                                               08423440  1NNN NNN                                                      #
M50500000000AMI MRU 05AMI15Z              1183787                                                               08423460  1NNN NNN                                                      #
M51920180119AMI MRU 19AMI19Z              1184054                                                               08423481  1NNN NNN                                                      #
M51120180111AMI MRU 11AMI11Z              1183982                                                               43033221  1NNN NNN                                                      #
M51220180112AMI MRU 12AMI12Z              5052870                                                               11041262  1NXX XXX                                                      #
M51320180113AMI MRU 13AMI13Z              5052769                                                               11041389  1NXX XXX                                                      #
M51320180113AMI MRU 13AMI13Z              5052872                                                               11041405  1NXX XXX                                                      #
M50800000000AMI MRU 08AMI08Z              50529975052998                                                                  1NXX XXXXX XXX                                                #
M51000000000AMI MRU 10AMI08C              0577311                                                               15010661  1NNN NNN                                                      #
M50800000000AMI MRU 08AMI08C              30538083053809                                                        15010670  1NNN NNNNN NNN                                                #
M50800000000AMI MRU 08AMI08C              1059716                                                               15010682  1NNN NNN                                                      #
M52600000000AMI MRU 26AMI08C              0678066                                                               15010683  1NNN NNN                                                      #
M50800000000AMI MRU 08AMI08C              1084605                                                               15010688  1NNN NNN                                                      #
M51000000000AMI MRU 10AMI08C              0553077                                                               15010700  1NNN NNN                                                      #
M52600000000AMI MRU 26AMI08C              0763084                                                               15010854  1NNN NNN                                                      #
M51000000000AMI MRU 10AMI08C              0763070                                                                         1YNN NNN                                                      #
M51000000000AMI MRU 10AMI08C              0763074                                                               15010860  1NNN NNN                                                      #
M51000000000AMI MRU 10AMI08C              0689284                                                               15010862  1NNN NNN                                                      #
M51000000000AMI MRU 10AMI08C              0763086                                                                         1YNN NNN                                                      #
M50700000000AMI MRU 07AMI07Z              5052477                                                                         1YXX XXX                                                      #
M51000000000AMI MRU 10AMI08C              0763079                                                                         1YNN NNN                                                      #
M51000000000AMI MRU 10AMI08C              0763075                                                                         1YNN NNN                                                      #
M51000000000AMI MRU 10AMI08C              0763076                                                                         1YNN NNN                                                      #
M51000000000AMI MRU 10AMI08C              0763077                                                               15010874  1NNN NNN                                                      #
M51000000000AMI MRU 10AMI08C              0763081                                                               15010876  1NNN NNN                                                      #
M51000000000AMI MRU 10AMI08C              0763071                                                               43018738  1NNN NNN                                                      #
M51000000000AMI MRU 10AMI08C              0543935                                                               15010884  1NNN NNN                                                      #
M51000000000AMI MRU 10AMI08C              0763047                                                               43018964  1NNN NNN                                                      #
M51000000000AMI MRU 10AMI08C              0763048                                                               15010896  1NNN NNN                                                      #
M51000000000AMI MRU 10AMI08C              0548666                                                               15010930  1NNN NNN                                                      #
M51000000000AMI MRU 10AMI08C              0775694                                                               15010942  1NNN NNN                                                      #
M51000000000AMI MRU 10AMI08C              0763103                                                               15010944  1NNN NNN                                                      #
M51000000000AMI MRU 10AMI08C              1057788                                                                         1YNN NNN                                                      #
M51000000000AMI MRU 10AMI08C              0763092                                                                         1YNN NNN                                                      #
M51000000000AMI MRU 10AMI08C              3038378                                                               15010954  1NNN NNN                                                      #
M51000000000AMI MRU 10AMI08C              0763097                                                               15010956  1NNN NNN                                                      #
M51000000000AMI MRU 10AMI08C              0763101                                                               15010960  1NNN NNN                                                      #
M51000000000AMI MRU 10AMI08C              0877296                                                               15010962  1NNN NNN                                                      #
M50500000000AMI MRU 05AMI15Z              5052471                                                               15010964  1NXX XXX                                                      #
M50600000000AMI MRU 06AMI08C              0763102                                                                         1YNN NNN                                                      #
M51000000000AMI MRU 10AMI08C              0763090                                                                         1YNN NNN                                                      #
M51000000000AMI MRU 10AMI08C              3058397                                                               15010974  1NNN NNN                                                      #
M51000000000AMI MRU 10AMI08C              0763089                                                               15010976  1NNN NNN                                                      #
M51000000000AMI MRU 10AMI08C              0763094                                                               15010981  1NNN NNN                                                      #
M51000000000AMI MRU 10AMI08C              0763095                                                                         1YNN NNN                                                      #
M50600000000AMI MRU 06AMI08C              0763052                                                                         1YNN NNN                                                      #
M51000000000AMI MRU 10AMI08C              0877212                                                               15010986  1NNN NNN                                                      #
M51000000000AMI MRU 10AMI08C              0763056                                                               15010990  1NNN NNN                                                      #
M51000000000AMI MRU 10AMI08C              0763060                                                               15010992  1NNN NNN                                                      #
M50600000000AMI MRU 06AMI08C              0763068                                                                         1YNN NNN                                                      #
M51000000000AMI MRU 10AMI08C              0763065                                                               15010996  1NNN NNN                                                      #
M50600000000AMI MRU 06AMI08C              0563560                                                               15011021  1NNN NNN                                                      #
M50600000000AMI MRU 06AMI08C              0763106                                                               15011030  1NNN NNN                                                      #
M51000000000AMI MRU 10AMI08C              0763109                                                               15011032  1NNN NNN                                                      #
M51000000000AMI MRU 10AMI08C              0763108                                                               15011034  1NNN NNN                                                      #
M51000000000AMI MRU 10AMI08C              0763110                                                               15011036  1NNN NNN                                                      #
M51000000000AMI MRU 10AMI08C              0763107                                                               43027703  1NNN NNN                                                      #
M51000000000AMI MRU 10AMI08C              1044533                                                               15011042  1NNN NNN                                                      #
M51000000000AMI MRU 10AMI08C              0763114                                                                         1YNN NNN                                                      #
M51000000000AMI MRU 10AMI08C              0763113                                                               15011046  1NNN NNN                                                      #
M50600000000AMI MRU 06AMI08C              0844492                                                               15011050  1NNN NNN                                                      #
M51000000000AMI MRU 10AMI08C              0763112                                                               15011052  1NNN NNN                                                      #
M51000000000AMI MRU 10AMI08C              0763119                                                               15011054  1NNN NNN                                                      #
M51000000000AMI MRU 10AMI08C              0763115                                                               15011056  1NNN NNN                                                      #
M51000000000AMI MRU 10AMI08C              0763111                                                               15011060  1NNN NNN                                                      #
M51000000000AMI MRU 10AMI08C              0763117                                                               15011062  1NNN NNN                                                      #
M51000000000AMI MRU 10AMI08C              0566720                                                               15011064  1NNN NNN                                                      #
M50600000000AMI MRU 06AMI08C              0763104                                                               15011066  1NNN NNN                                                      #
M51000000000AMI MRU 10AMI08C              0763066                                                               15011070  1NNN NNN                                                      #
M51000000000AMI MRU 10AMI08C              0763051                                                               15011072  1NNN NNN                                                      #
M51000000000AMI MRU 10AMI08C              0707105                                                               15011074  1NNN NNN                                                      #
M51000000000AMI MRU 10AMI08C              0763067                                                               15011076  1NNN NNN                                                      #
M51000000000AMI MRU 10AMI08C              1019794                                                               15011080  1NNN NNN                                                      #
M51000000000AMI MRU 10AMI08C              0591857                                                               15011082  1NNN NNN                                                      #
M50600000000AMI MRU 06AMI08C              0763054                                                               15011084  1NNN NNN                                                      #
M51000000000AMI MRU 10AMI08C              3066032                                                               15011086  1NNN NNN                                                      #
M51000000000AMI MRU 10AMI08C              0555460                                                               15011110  1NNN NNN                                                      #
M51000000000AMI MRU 10AMI08C              1002055                                                               15011120  1NNN NNN                                                      #
M51000000000AMI MRU 10AMI08C              1002147                                                               15011122  1NNN NNN                                                      #
M50600000000AMI MRU 06AMI08C              0642831                                                               15011124  1NNN NNN                                                      #
M51000000000AMI MRU 10AMI08C              0846597                                                               15011126  1NNN NNN                                                      #
M50600000000AMI MRU 06AMI08C              1002148                                                               15011130  1NNN NNN                                                      #
M51000000000AMI MRU 10AMI08C              1002149                                                               15011136  1NNN NNN                                                      #
M52600000000AMI MRU 26AMI08C              1002150                                                               15011142  1NNN NNN                                                      #
M51000000000AMI MRU 10AMI08C              1002151                                                               15011146  1NNN NNN                                                      #
M50600000000AMI MRU 06AMI08C              1002152                                                               15011148  1NNN NNN                                                      #
M52600000000AMI MRU 26AMI08C              0620742                                                               15011150  1NNN NNN                                                      #
M51000000000AMI MRU 10AMI08C              0934818                                                               15011152  1NNN NNN                                                      #
M51000000000AMI MRU 10AMI08C              0934819                                                               15011154  1NNN NNN                                                      #
M51000000000AMI MRU 10AMI08C              0934820                                                                         1YNN NNN                                                      #
M51000000000AMI MRU 10AMI08C              0934821                                                               15011158  1NNN NNN                                                      #
M52600000000AMI MRU 26AMI08C              0934822                                                               15011160  1NNN NNN                                                      #
M50600000000AMI MRU 06AMI08C              0934823                                                                         1YNN NNN                                                      #
M51000000000AMI MRU 10AMI08C              0934824                                                                         1YNN NNN                                                      #
M52600000000AMI MRU 26AMI08C              0934825                                                               15011166  1NNN NNN                                                      #
M51000000000AMI MRU 10AMI08C              0934826                                                               15011168  1NNN NNN                                                      #
M51000000000AMI MRU 10AMI08C              0934827                                                               15011170  1NNN NNN                                                      #
M52600000000AMI MRU 26AMI08C              1073835                                                               15011327  1NNN NNN                                                      #
M52600000000AMI MRU 26AMI08C              0623478                                                               15011330  1NNN NNN                                                      #
M51000000000AMI MRU 10AMI08C              0872166                                                               15011332  1NNN NNN                                                      #
M51000000000AMI MRU 10AMI08C              0623461                                                               15011333  1NNN NNN                                                      #
M51000000000AMI MRU 10AMI08C              0623462                                                               15011334  1NNN NNN                                                      #
M51000000000AMI MRU 10AMI08C              0623463                                                               15011336  1NNN NNN                                                      #
M51000000000AMI MRU 10AMI08C              0623466                                                               15011341  1NNN NNN                                                      #
M51000000000AMI MRU 10AMI08C              0623467                                                               15011343  1NNN NNN                                                      #
M51000000000AMI MRU 10AMI08C              0623468                                                               15011344  1NNN NNN                                                      #
M50600000000AMI MRU 06AMI08C              0623469                                                               15011346  1NNN NNN                                                      #
M52600000000AMI MRU 26AMI08C              0623470                                                               15011347  1NNN NNN                                                      #
M51000000000AMI MRU 10AMI08C              0623471                                                               15011350  1NNN NNN                                                      #
M50600000000AMI MRU 06AMI08C              0640372                                                               15011351  1NNN NNN                                                      #
M50600000000AMI MRU 06AMI08C              0623474                                                               15011354  1NNN NNN                                                      #
M51000000000AMI MRU 10AMI08C              0623475                                                               15011356  1NNN NNN                                                      #
M51000000000AMI MRU 10AMI08C              0775901                                                               15011357  1NNN NNN                                                      #
M52600000000AMI MRU 26AMI08C              0623476                                                               15011360  1NNN NNN                                                      #
M51000000000AMI MRU 10AMI08C              0623477                                                               15011361  1NNN NNN                                                      #
M51000000000AMI MRU 10AMI08C              0623441                                                               15011363  1NNN NNN                                                      #
M51000000000AMI MRU 10AMI08C              0877980                                                               15011364  1NNN NNN                                                      #
M51000000000AMI MRU 10AMI08C              0623442                                                                         1YNN NNN                                                      #
M51000000000AMI MRU 10AMI08C              0623443                                                               15011367  1NNN NNN                                                      #
M51300000000AMI MRU 13AMI08C              0623444                                                               15011370  1NNN NNN                                                      #
M51300000000AMI MRU 13AMI08C              0623445                                                               15011371  1NNN NNN                                                      #
M51300000000AMI MRU 13AMI08C              0623446                                                               15011373  1NNN NNN                                                      #
M51000000000AMI MRU 10AMI08C              0623447                                                               15011374  1NNN NNN                                                      #
M51300000000AMI MRU 13AMI08C              0623448                                                               15011376  1NNN NNN                                                      #
M52600000000AMI MRU 26AMI08C              0623449                                                               15011377  1NNN NNN                                                      #
M51300000000AMI MRU 13AMI08C              0623450                                                               15011380  1NNN NNN                                                      #
M50600000000AMI MRU 06AMI08C              0623451                                                               15011381  1NNN NNN                                                      #
M52600000000AMI MRU 26AMI08C              0623452                                                               15011383  1NNN NNN                                                      #
M51000000000AMI MRU 10AMI08C              0877133                                                               15011384  1NNN NNN                                                      #
M50600000000AMI MRU 06AMI08C              0623453                                                               15011386  1NNN NNN                                                      #
M51300000000AMI MRU 13AMI08C              0623454                                                               15011387  1NNN NNN                                                      #
M52600000000AMI MRU 26AMI08C              0623455                                                                         1YNN NNN                                                      #
M50600000000AMI MRU 06AMI08C              0623456                                                               15011391  1NNN NNN                                                      #
M52600000000AMI MRU 26AMI08C              0877211                                                               15011393  1NNN NNN                                                      #
M52600000000AMI MRU 26AMI08C              0623457                                                               15011394  1NNN NNN                                                      #
M52600000000AMI MRU 26AMI08C              1073936                                                               15011396  1NNN NNN                                                      #
M50600000000AMI MRU 06AMI08C              0693816                                                               15011430  1NNN NNN                                                      #
M52600000000AMI MRU 26AMI08C              0735481                                                               15011432  1NNN NNN                                                      #
M50600000000AMI MRU 06AMI08C              0800420                                                               15011490  1NNN NNN                                                      #
M52600000000AMI MRU 26AMI08C              0565176                                                               15011510  1NNN NNN                                                      #
M52600000000AMI MRU 26AMI08C              0565177                                                               15011520  1NNN NNN                                                      #
M50600000000AMI MRU 06AMI08C              0565178                                                                         1YNN NNN                                                      #
M50600000000AMI MRU 06AMI08C              0565179                                                               15011540  1NNN NNN                                                      #
M52600000000AMI MRU 26AMI08C              0565180                                                               15011550  1NNN NNN                                                      #
M50600000000AMI MRU 06AMI08C              0565181                                                               15011560  1NNN NNN                                                      #
M52600000000AMI MRU 26AMI08C              0565182                                                               15011570  1NNN NNN                                                      #
M52600000000AMI MRU 26AMI08C              0565183                                                               15011580  1NNN NNN                                                      #
M52600000000AMI MRU 26AMI08C              0800575                                                               15011600  1NNN NNN                                                      #
M50600000000AMI MRU 06AMI08C              3038303                                                               15011610  1NNN NNN                                                      #
M50600000000AMI MRU 06AMI08C              0565184                                                               15011620  1NNN NNN                                                      #
M52600000000AMI MRU 26AMI08C              0565185                                                               15011630  1NNN NNN                                                      #
M52600000000AMI MRU 26AMI08C              0565186                                                               15011640  1NNN NNN                                                      #
M52600000000AMI MRU 26AMI08C              0527868                                                               15011650  1NNN NNN                                                      #
M52600000000AMI MRU 26AMI08C              0565187                                                               15011660  1NNN NNN                                                      #
M52600000000AMI MRU 26AMI08C              0527863                                                               15011670  1NNN NNN                                                      #
M52600000000AMI MRU 26AMI08C              0565188                                                               15011680  1NNN NNN                                                      #
M52600000000AMI MRU 26AMI08C              0521228                                                               15011700  1NNN NNN                                                      #
M52600000000AMI MRU 26AMI08C              3052729                                                               15011702  1NNN NNN                                                      #
M52600000000AMI MRU 26AMI08C              0521235                                                               15011704  1NNN NNN                                                      #
M52600000000AMI MRU 26AMI08C              0521266                                                               15011705  1NNN NNN                                                      #
M50600000000AMI MRU 06AMI08C              0521270                                                               15011707  1NNN NNN                                                      #
M50600000000AMI MRU 06AMI08C              0521279                                                               15011708  1NNN NNN                                                      #
M50600000000AMI MRU 06AMI08C              0521233                                                               15011711  1NNN NNN                                                      #
M52600000000AMI MRU 26AMI08C              0523260                                                               15011712  1NNN NNN                                                      #
M52600000000AMI MRU 26AMI08C              0521224                                                               15011714  1NNN NNN                                                      #
M52600000000AMI MRU 26AMI08C              0521261                                                               15011715  1NNN NNN                                                      #
M52600000000AMI MRU 26AMI08C              0521223                                                               15011717  1NNN NNN                                                      #
M52600000000AMI MRU 26AMI08C              0521236                                                               15011718  1NNN NNN                                                      #
M52600000000AMI MRU 26AMI08C              0521265                                                               15011721  1NNN NNN                                                      #
M52600000000AMI MRU 26AMI08C              0521274                                                               15011722  1NNN NNN                                                      #
M52600000000AMI MRU 26AMI08C              0521232                                                               15011724  1NNN NNN                                                      #
M50600000000AMI MRU 06AMI08C              0521271                                                               15011725  1NNN NNN                                                      #
M52600000000AMI MRU 26AMI08C              0523261                                                               15011727  1NNN NNN                                                      #
M52600000000AMI MRU 26AMI08C              0521221                                                               15011728  1NNN NNN                                                      #
M52600000000AMI MRU 26AMI08C              0877907                                                               15011741  1NNN NNN                                                      #
M52600000000AMI MRU 26AMI08C              0565189                                                               15011743  1NNN NNN                                                      #
M52600000000AMI MRU 26AMI08C              0936068                                                               15011745  1NNN NNN                                                      #
M52600000000AMI MRU 26AMI08C              0565190                                                               15011747  1NNN NNN                                                      #
M52600000000AMI MRU 26AMI08C              1058041                                                               15011760  1NNN NNN                                                      #
M52600000000AMI MRU 26AMI08C              1002450                                                               15011770  1NNN NNN                                                      #
M52600000000AMI MRU 26AMI08C              3038304                                                               15011780  1NNN NNN                                                      #
M52600000000AMI MRU 26AMI08C              0842542                                                               15011790  1NNN NNN                                                      #
M52600000000AMI MRU 26AMI08C              0764956                                                               15011800  1NNN NNN                                                      #
M52600000000AMI MRU 26AMI08C              0654439                                                               15011810  1NNN NNN                                                      #
M52600000000AMI MRU 26AMI08C              0565191                                                               15011820  1NNN NNN                                                      #
M50600000000AMI MRU 06AMI08C              0565193                                                               15011830  1NNN NNN                                                      #
M50600000000AMI MRU 06AMI08C              0565192                                                               15011840  1NNN NNN                                                      #
M50600000000AMI MRU 06AMI08C              3028500                                                               15011850  1NNN NNN                                                      #
M50600000000AMI MRU 06AMI08C              0049867                                                               15011860  1NNN NNN                                                      #
M50800000000AMI MRU 08AMI08C              3064288                                                               15011874  1NNN NNN                                                      #
M50600000000AMI MRU 06AMI08C              0514701                                                               15011876  1NNN NNN                                                      #
M52600000000AMI MRU 26AMI08C              0514720                                                               15011882  1NNN NNN                                                      #
M52600000000AMI MRU 26AMI08C              0512285                                                               15011884  1NNN NNN                                                      #
M50800000000AMI MRU 08AMI08C              0514730                                                               15011886  1NNN NNN                                                      #
M50600000000AMI MRU 06AMI08C              0510213                                                               15011888  1NNN NNN                                                      #
M50600000000AMI MRU 06AMI08C              0520256                                                               15011891  1NNN NNN                                                      #
M52600000000AMI MRU 26AMI08C              0510211                                                               15011893  1NNN NNN                                                      #
M50800000000AMI MRU 08AMI08C              0564253                                                               15011910  1NNN NNN                                                      #
M52600000000AMI MRU 26AMI08C              0763141                                                               15011914  1NNN NNN                                                      #
M52600000000AMI MRU 26AMI08C              0763151                                                               15011916  1NNN NNN                                                      #
M52600000000AMI MRU 26AMI08C              0763139                                                               15011918  1NNN NNN                                                      #
M52600000000AMI MRU 26AMI08C              3024243                                                               15011919  1NNN NNN                                                      #
M52600000000AMI MRU 26AMI08C              0763142                                                               15011920  1NNN NNN                                                      #
M52600000000AMI MRU 26AMI08C              0585418                                                               15011922  1NNN NNN                                                      #
M52600000000AMI MRU 26AMI08C              0524065                                                               15011924  1NNN NNN                                                      #
M50800000000AMI MRU 08AMI08C              3025455                                                               15011926  1NNN NNN                                                      #
M50800000000AMI MRU 08AMI08C              0763146                                                               15011930  1NNN NNN                                                      #
M50800000000AMI MRU 08AMI08C              0763147                                                               15011932  1NNN NNN                                                      #
M50600000000AMI MRU 06AMI08C              0763148                                                               15011934  1NNN NNN                                                      #
M50800000000AMI MRU 08AMI08C              3033912                                                               15011936  1NNN NNN                                                      #
M50800000000AMI MRU 08AMI08C              3011206                                                               15011940  1NNN NNN                                                      #
M52600000000AMI MRU 26AMI08C              0763153                                                               15011942  1NNN NNN                                                      #
M50600000000AMI MRU 06AMI08C              0623688                                                               15011944  1NNN NNN                                                      #
M52600000000AMI MRU 26AMI08C              0763145                                                               15011946  1NNN NNN                                                      #
M52600000000AMI MRU 26AMI08C              0763150                                                               15011950  1NNN NNN                                                      #
M50600000000AMI MRU 06AMI08C              3037742                                                               15011952  1NNN NNN                                                      #
M50600000000AMI MRU 06AMI08C              0986385                                                               15011955  1NNN NNN                                                      #
M50800000000AMI MRU 08AMI08C              0524940                                                               15011956  1NNN NNN                                                      #
M50600000000AMI MRU 06AMI08C              0559200                                                               15011960  1NNN NNN                                                      #
M52600000000AMI MRU 26AMI08C              3008135                                                               15011962  1NNN NNN                                                      #
M50600000000AMI MRU 06AMI08C              0541572                                                               15011964  1NNN NNN                                                      #
M52600000000AMI MRU 26AMI08C              3023896                                                               15011966  1NNN NNN                                                      #
M50800000000AMI MRU 08AMI08C              0729051                                                               15011968  1NNN NNN                                                      #
M50600000000AMI MRU 06AMI08C              0548207                                                               15011970  1NNN NNN                                                      #
M52600000000AMI MRU 26AMI08C              0763127                                                               15011973  1NNN NNN                                                      #
M52600000000AMI MRU 26AMI08C              0763128                                                               15011974  1NNN NNN                                                      #
M50600000000AMI MRU 06AMI08C              3028158                                                               15011975  1NNN NNN                                                      #
M52600000000AMI MRU 26AMI08C              0585312                                                               15011976  1NNN NNN                                                      #
M52600000000AMI MRU 26AMI08C              0763130                                                               15011980  1NNN NNN                                                      #
M50800000000AMI MRU 08AMI08C              0763131                                                               15011981  1NNN NNN                                                      #
M50600000000AMI MRU 06AMI08C              0763132                                                               15011984  1NNN NNN                                                      #
M50800000000AMI MRU 08AMI08C              0763133                                                               15011986  1NNN NNN                                                      #
M50800000000AMI MRU 08AMI08C              0763134                                                               15011988  1NNN NNN                                                      #
M50600000000AMI MRU 06AMI08C              0763135                                                               15011989  1NNN NNN                                                      #
M50600000000AMI MRU 06AMI08C              1017602                                                               15011990  1NNN NNN                                                      #
M52600000000AMI MRU 26AMI08C              0560059                                                               15011991  1NNN NNN                                                      #
M50600000000AMI MRU 06AMI08C              0530635                                                               15011992  1NNN NNN                                                      #
M50600000000AMI MRU 06AMI08C              0763136                                                               15011993  1NNN NNN                                                      #
M52600000000AMI MRU 26AMI08C              0514716                                                               15011994  1NNN NNN                                                      #
M50800000000AMI MRU 08AMI08C              0561206                                                               15011995  1NNN NNN                                                      #
M50600000000AMI MRU 06AMI08C              0763137                                                               15011996  1NNN NNN                                                      #
M50800000000AMI MRU 08AMI08C              0763138                                                               15011997  1NNN NNN                                                      #
M50800000000AMI MRU 08AMI08C              0623687                                                               15012000  1NNN NNN                                                      #
M52600000000AMI MRU 26AMI08C              3013642                                                               15012002  1NNN NNN                                                      #
M50600000000AMI MRU 06AMI08C              3013643                                                               15012004  1NNN NNN                                                      #
M50600000000AMI MRU 06AMI08C              0595809                                                               15012006  1NNN NNN                                                      #
M50800000000AMI MRU 08AMI08C              0590068                                                               15012008  1NNN NNN                                                      #
M52600000000AMI MRU 26AMI08C              3023872                                                               15012009  1NNN NNN                                                      #
M50800000000AMI MRU 08AMI08C              0047568                                                               15012420  1NNN NNN                                                      #
M50800000000AMI MRU 08AMI08C              0047570                                                               15012424  1NNN NNN                                                      #
M50800000000AMI MRU 08AMI08C              0549716                                                               15012425  1NNN NNN                                                      #
M50800000000AMI MRU 08AMI08C              0047572                                                               15012427  1NNN NNN                                                      #
M50600000000AMI MRU 06AMI08C              0047574                                                               15012430  1NNN NNN                                                      #
M50600000000AMI MRU 06AMI08C              0047565                                                               15012432  1NNN NNN                                                      #
M50600000000AMI MRU 06AMI08C              0553812                                                               15012434  1NNN NNN                                                      #
M52600000000AMI MRU 26AMI08C              0047567                                                               15012435  1NNN NNN                                                      #
M50600000000AMI MRU 06AMI08C              0571821                                                               15012437  1NNN NNN                                                      #
M50600000000AMI MRU 06AMI08C              3026309                                                               15012438  1NNN NNN                                                      #
M50800000000AMI MRU 08AMI08C              0047560                                                               15012441  1NNN NNN                                                      #
M50600000000AMI MRU 06AMI08C              0047561                                                               15012442  1NNN NNN                                                      #
M52600000000AMI MRU 26AMI08C              0047563                                                               15012444  1NNN NNN                                                      #
M50800000000AMI MRU 08AMI08C              0047562                                                               15012445  1NNN NNN                                                      #
M50600000000AMI MRU 06AMI08C              0047555                                                               15012447  1NNN NNN                                                      #
M50600000000AMI MRU 06AMI08C              0047590                                                               15012448  1NNN NNN                                                      #
M50800000000AMI MRU 08AMI08C              0047557                                                               15012450  1NNN NNN                                                      #
M50800000000AMI MRU 08AMI08C              0047558                                                               15012452  1NNN NNN                                                      #
M50600000000AMI MRU 06AMI08C              0047475                                                               15012454  1NNN NNN                                                      #
M50600000000AMI MRU 06AMI08C              0533105                                                               15012455  1NNN NNN                                                      #
M50600000000AMI MRU 06AMI08C              0986760                                                               15012457  1NNN NNN                                                      #
M50600000000AMI MRU 06AMI08C              0537524                                                               15012458  1NNN NNN                                                      #
M50600000000AMI MRU 06AMI08C              0556344                                                               15012605  1NNN NNN                                                      #
M50800000000AMI MRU 08AMI08C              1058264                                                               15012610  1NNN NNN                                                      #
M52600000000AMI MRU 26AMI08C              0454841                                                               15012611  1NNN NNN                                                      #
M52600000000AMI MRU 26AMI08C              0763154                                                               15012613  1NNN NNN                                                      #
M52600000000AMI MRU 26AMI08C              1047208                                                               15012614  1NNN NNN                                                      #
M52600000000AMI MRU 26AMI08C              0763156                                                               15012616  1NNN NNN                                                      #
M50800000000AMI MRU 08AMI08C              0763157                                                               15012617  1NNN NNN                                                      #
M50800000000AMI MRU 08AMI08C              0763158                                                               15012619  1NNN NNN                                                      #
M52600000000AMI MRU 26AMI08C              0763159                                                               15012620  1NNN NNN                                                      #
M50800000000AMI MRU 08AMI08C              0533212                                                               15012622  1NNN NNN                                                      #
M52600000000AMI MRU 26AMI08C              3031460                                                               15012623  1NNN NNN                                                      #
M50800000000AMI MRU 08AMI08C              3003581                                                               15012625  1NNN NNN                                                      #
M50800000000AMI MRU 08AMI08C              0763161                                                               15012626  1NNN NNN                                                      #
M50800000000AMI MRU 08AMI08C              0763163                                                               15012628  1NNN NNN                                                      #
M52600000000AMI MRU 26AMI08C              0763164                                                               15012629  1NNN NNN                                                      #
M52600000000AMI MRU 26AMI08C              0048699                                                               15012630  1NNN NNN                                                      #
M52600000000AMI MRU 26AMI08C              0763165                                                               15012631  1NNN NNN                                                      #
M52600000000AMI MRU 26AMI08C              0763166                                                               15012633  1NNN NNN                                                      #
M50800000000AMI MRU 08AMI08C              0763167                                                               15012634  1NNN NNN                                                      #
M50600000000AMI MRU 06AMI08C              0763168                                                               15012636  1NNN NNN                                                      #
M50800000000AMI MRU 08AMI08C              0763169                                                               15012637  1NNN NNN                                                      #
M52600000000AMI MRU 26AMI08C              0763170                                                               15012639  1NNN NNN                                                      #
M50800000000AMI MRU 08AMI08C              0763121                                                               15012640  1NNN NNN                                                      #
M50800000000AMI MRU 08AMI08C              0763126                                                               15012642  1NNN NNN                                                      #
M52600000000AMI MRU 26AMI08C              0763123                                                               15012643  1NNN NNN                                                      #
M50800000000AMI MRU 08AMI08C              3033073                                                               15012655  1NNN NNN                                                      #
M50600000000AMI MRU 06AMI08C              0883106                                                               15012658  1NNN NNN                                                      #
M50800000000AMI MRU 08AMI08C              0706036                                                               15012660  1NNN NNN                                                      #
M52600000000AMI MRU 26AMI08C              0762969                                                               15012661  1NNN NNN                                                      #
M52600000000AMI MRU 26AMI08C              0762970                                                               15012663  1NNN NNN                                                      #
M52600000000AMI MRU 26AMI08C              0763172                                                               15012666  1NNN NNN                                                      #
M50600000000AMI MRU 06AMI08C              0763173                                                               15012667  1NNN NNN                                                      #
M50800000000AMI MRU 08AMI08C              0763174                                                               15012669  1NNN NNN                                                      #
M50800000000AMI MRU 08AMI08C              0763175                                                               15012670  1NNN NNN                                                      #
M50800000000AMI MRU 08AMI08C              0763176                                                               15012672  1NNN NNN                                                      #
M50600000000AMI MRU 06AMI08C              0763177                                                               15012673  1NNN NNN                                                      #
M52600000000AMI MRU 26AMI08C              0763178                                                               15012675  1NNN NNN                                                      #
M50800000000AMI MRU 08AMI08C              0763179                                                               15012676  1NNN NNN                                                      #
M50600000000AMI MRU 06AMI08C              0477133                                                               15012678  1NNN NNN                                                      #
M50600000000AMI MRU 06AMI08C              1058265                                                               15012679  1NNN NNN                                                      #
M50600000000AMI MRU 06AMI08C              1044534                                                               15012680  1NNN NNN                                                      #
M50800000000AMI MRU 08AMI08C              1044535                                                               15012681  1NNN NNN                                                      #
M50800000000AMI MRU 08AMI08C              0763182                                                               15012683  1NNN NNN                                                      #
M50600000000AMI MRU 06AMI08C              1044536                                                               15012684  1NNN NNN                                                      #
M50600000000AMI MRU 06AMI08C              0763184                                                               15012686  1NNN NNN                                                      #
M50800000000AMI MRU 08AMI08C              0763185                                                               15012687  1NNN NNN                                                      #
M50800000000AMI MRU 08AMI08C              0763125                                                               15012689  1NNN NNN                                                      #
M50800000000AMI MRU 08AMI08C              0763124                                                               15012690  1NNN NNN                                                      #
M50800000000AMI MRU 08AMI08C              0541441                                                               15012692  1NNN NNN                                                      #
M50800000000AMI MRU 08AMI08C              0763122                                                               15012693  1NNN NNN                                                      #
M50800000000AMI MRU 08AMI08C              0883107                                                               15012696  1NNN NNN                                                      #
M50800000000AMI MRU 08AMI08C              0522888                                                               15012700  1NNN NNN                                                      #
M52600000000AMI MRU 26AMI08C              1002138                                                               15012730  1NNN NNN                                                      #
M52600000000AMI MRU 26AMI08C              1002139                                                               15012740  1NNN NNN                                                      #
M50800000000AMI MRU 08AMI08C              0602656                                                               15012750  1NNN NNN                                                      #
M50800000000AMI MRU 08AMI08C              0775536                                                               15012760  1NNN NNN                                                      #
M50800000000AMI MRU 08AMI08C              1002140                                                               15012770  1NNN NNN                                                      #
M50800000000AMI MRU 08AMI08C              1002141                                                               15012781  1NNN NNN                                                      #
M52600000000AMI MRU 26AMI08C              1002142                                                               15012790  1NNN NNN                                                      #
M50800000000AMI MRU 08AMI08C              0742594                                                               15012810  1NNN NNN                                                      #
M52600000000AMI MRU 26AMI08C              0742595                                                               15012820  1NNN NNN                                                      #
M52600000000AMI MRU 26AMI08C              0742596                                                               15012830  1NNN NNN                                                      #
M50600000000AMI MRU 06AMI08C              0742597                                                               15012840  1NNN NNN                                                      #
M52600000000AMI MRU 26AMI08C              0742598                                                               15012850  1NNN NNN                                                      #
M50600000000AMI MRU 06AMI08C              0742599                                                               15012860  1NNN NNN                                                      #
M50800000000AMI MRU 08AMI08C              0742600                                                               15012870  1NNN NNN                                                      #
M50800000000AMI MRU 08AMI08C              0742601                                                               15012880  1NNN NNN                                                      #
M50600000000AMI MRU 06AMI08C              3008247                                                               15012890  1NNN NNN                                                      #
M50800000000AMI MRU 08AMI08C              3050927                                                               15012900  1NNN NNN                                                      #
M50800000000AMI MRU 08AMI08C              0742603                                                               15012910  1NNN NNN                                                      #
M50800000000AMI MRU 08AMI08C              0742604                                                               15012920  1NNN NNN                                                      #
M50800000000AMI MRU 08AMI08C              0742605                                                               15012930  1NNN NNN                                                      #
M52600000000AMI MRU 26AMI08C              0605619                                                               15012940  1NNN NNN                                                      #
M50800000000AMI MRU 08AMI08C              0604470                                                               15012950  1NNN NNN                                                      #
M50800000000AMI MRU 08AMI08C              0982787                                                               15012960  1NNN NNN                                                      #
M50600000000AMI MRU 06AMI08C              0561253                                                               15013200  1NNN NNN                                                      #
M50800000000AMI MRU 08AMI08C              0614919                                                               15013230  1NNN NNN                                                      #
M50600000000AMI MRU 06AMI08C              0742606                                                               15013240  1NNN NNN                                                      #
M52600000000AMI MRU 26AMI08C              0742607                                                               15013250  1NNN NNN                                                      #
M50800000000AMI MRU 08AMI08C              0742608                                                               15013260  1NNN NNN                                                      #
M50800000000AMI MRU 08AMI08C              0742610                                                               15013280  1NNN NNN                                                      #
M50600000000AMI MRU 06AMI08C              0742611                                                               15013290  1NNN NNN                                                      #
M50600000000AMI MRU 06AMI08C              0565548                                                               15013300  1NNN NNN                                                      #
M50800000000AMI MRU 08AMI08C              0742613                                                               15013310  1NNN NNN                                                      #
M50800000000AMI MRU 08AMI08C              3059089                                                               15013320  1NNN NNN                                                      #
M50600000000AMI MRU 06AMI08C              0742615                                                               15013330  1NNN NNN                                                      #
M50800000000AMI MRU 08AMI08C              0742616                                                               15013340  1NNN NNN                                                      #
M52600000000AMI MRU 26AMI08C              0742617                                                               15013350  1NNN NNN                                                      #
M52600000000AMI MRU 26AMI08C              0742618                                                               15013360  1NNN NNN                                                      #
M52600000000AMI MRU 26AMI08C              0742619                                                               15013371  1NNN NNN                                                      #
M50800000000AMI MRU 08AMI08C              3008822                                                               15013380  1NNN NNN                                                      #
M50800000000AMI MRU 08AMI08C              0742621                                                               15013390  1NNN NNN                                                      #
M50800000000AMI MRU 08AMI08C              0742622                                                               15013400  1NNN NNN                                                      #
M50800000000AMI MRU 08AMI08C              0742623                                                               15013410  1NNN NNN                                                      #
M50600000000AMI MRU 06AMI08C              3040130                                                               15013420  1NNN NNN                                                      #
M52600000000AMI MRU 26AMI08C              3042010                                                               15013430  1NNN NNN                                                      #
M50600000000AMI MRU 06AMI08C              0742626                                                               15013440  1NNN NNN                                                      #
M52600000000AMI MRU 26AMI08C              0531699                                                               15013451  1NNN NNN                                                      #
M52600000000AMI MRU 26AMI08C              0742627                                                               15013460  1NNN NNN                                                      #
M51000000000AMI MRU 10AMI08C              0626823                                                               15013738  1NNN NNN                                                      #
M50800000000AMI MRU 08AMI08C              0742628                                                               15013740  1NNN NNN                                                      #
M50800000000AMI MRU 08AMI08C              0735259                                                               15013750  1NNN NNN                                                      #
M52600000000AMI MRU 26AMI08C              3053689                                                               15013758  1NNN NNN                                                      #
M50800000000AMI MRU 08AMI08C              0742631                                                               15013760  1NNN NNN                                                      #
M50600000000AMI MRU 06AMI08C              0742632                                                               15013770  1NNN NNN                                                      #
M50800000000AMI MRU 08AMI08C              0617894                                                               15013780  1NNN NNN                                                      #
M50800000000AMI MRU 08AMI08C              0617999                                                               15013790  1NNN NNN                                                      #
M51000000000AMI MRU 10AMI08C              0621847                                                               15013800  1NNN NNN                                                      #
M52600000000AMI MRU 26AMI08C              0742646                                                               15013810  1NNN NNN                                                      #
M50800000000AMI MRU 08AMI08C              0742647                                                               15013820  1NNN NNN                                                      #
M51000000000AMI MRU 10AMI08C              0742649                                                               15013840  1NNN NNN                                                      #
M51000000000AMI MRU 10AMI08C              0742650                                                               15013850  1NNN NNN                                                      #
M51000000000AMI MRU 10AMI08C              0742651                                                               15013860  1NNN NNN                                                      #
M52600000000AMI MRU 26AMI08C              0742652                                                               15013870  1NNN NNN                                                      #
M50800000000AMI MRU 08AMI08C              0742653                                                               15013880  1NNN NNN                                                      #
M51000000000AMI MRU 10AMI08C              0742654                                                               15013890  1NNN NNN                                                      #
M50800000000AMI MRU 08AMI08C              0742655                                                               15013900  1NNN NNN                                                      #
M50800000000AMI MRU 08AMI08C              0638301                                                               15013910  1NNN NNN                                                      #
M51000000000AMI MRU 10AMI08C              1058266                                                               15013920  1NNN NNN                                                      #
M50800000000AMI MRU 08AMI08C              0742656                                                               15013930  1NNN NNN                                                      #
M50800000000AMI MRU 08AMI08C              0742657                                                               15013940  1NNN NNN                                                      #
M51000000000AMI MRU 10AMI08C              0742658                                                               15013950  1NNN NNN                                                      #
M50800000000AMI MRU 08AMI08C              0742659                                                               15013960  1NNN NNN                                                      #
M52600000000AMI MRU 26AMI08C              0561258                                                               15014200  1NNN NNN                                                      #
M51000000000AMI MRU 10AMI08C              0742660                                                               15014230  1NNN NNN                                                      #
M50800000000AMI MRU 08AMI08C              3012091                                                               15014240  1NNN NNN                                                      #
M51000000000AMI MRU 10AMI08C              0743011                                                               15014250  1NNN NNN                                                      #
M52600000000AMI MRU 26AMI08C              0743012                                                               15014260  1NNN NNN                                                      #
M50800000000AMI MRU 08AMI08C              0743013                                                               15014270  1NNN NNN                                                      #
M52600000000AMI MRU 26AMI08C              0743014                                                               15014280  1NNN NNN                                                      #
M51000000000AMI MRU 10AMI08C              0743015                                                               15014290  1NNN NNN                                                      #
M50800000000AMI MRU 08AMI08C              0743016                                                               15014300  1NNN NNN                                                      #
M50800000000AMI MRU 08AMI08C              3066166                                                               15014310  1NNN NNN                                                      #
M51000000000AMI MRU 10AMI08C              3008249                                                               15014320  1NNN NNN                                                      #
M50800000000AMI MRU 08AMI08C              0743018                                                               15014330  1NNN NNN                                                      #
M52600000000AMI MRU 26AMI08C              0743019                                                               15014340  1NNN NNN                                                      #
M51000000000AMI MRU 10AMI08C              0669669                                                               15014350  1NNN NNN                                                      #
M52600000000AMI MRU 26AMI08C              0743020                                                               15014360  1NNN NNN                                                      #
M52600000000AMI MRU 26AMI08C              0702457                                                               15014370  1NNN NNN                                                      #
M50800000000AMI MRU 08AMI08C              1002143                                                               15014380  1NNN NNN                                                      #
M52600000000AMI MRU 26AMI08C              0701556                                                               15014390  1NNN NNN                                                      #
M51000000000AMI MRU 10AMI08C              1002144                                                               15014400  1NNN NNN                                                      #
M50800000000AMI MRU 08AMI08C              1002145                                                               15014410  1NNN NNN                                                      #
M50800000000AMI MRU 08AMI08C              0479848                                                               15014420  1NNN NNN                                                      #
M50600000000AMI MRU 06AMI08C              0715367                                                               15014430  1NNN NNN                                                      #
M50800000000AMI MRU 08AMI08C              0726081                                                               15014440  1NNN NNN                                                      #
M50800000000AMI MRU 08AMI08C              1002146                                                               15014451  1NNN NNN                                                      #
M51000000000AMI MRU 10AMI08C              0474353                                                               15014460  1NNN NNN                                                      #
M50800000000AMI MRU 08AMI08C              0830012                                                               15015000  1NNN NNN                                                      #
M50800000000AMI MRU 08AMI08C              3027942                                                               15015010  1NNN NNN                                                      #
M50600000000AMI MRU 06AMI08C              0545466                                                               15015060  1NNN NNN                                                      #
M50600000000AMI MRU 06AMI08C              0546489                                                               15015070  1NNN NNN                                                      #
M50800000000AMI MRU 08AMI08C              3023208                                                               15015080  1NNN NNN                                                      #
M50800000000AMI MRU 08AMI08C              3023209                                                               15015090  1NNN NNN                                                      #
M50800000000AMI MRU 08AMI08C              3023210                                                               15015100  1NNN NNN                                                      #
M50800000000AMI MRU 08AMI08C              3023211                                                               15015110  1NNN NNN                                                      #
M50600000000AMI MRU 06AMI08C              3023212                                                               15015120  1NNN NNN                                                      #
M50600000000AMI MRU 06AMI08C              3023213                                                               15015130  1NNN NNN                                                      #
M50800000000AMI MRU 08AMI08C              3023214                                                               15015140  1NNN NNN                                                      #
M51120180111AMI MRU 11AMI11Z              5052999                                                               15020050  1NXX XXX                                                      #
M51120180111AMI MRU 11AMI11Z              5053000                                                               15020056  1NXX XXX                                                      #
M52700000000AMI MRU 27AMI08C              0676429                                                               15020058  1NNN NNN                                                      #
M51400000000AMI MRU 14AMI08C              1038055                                                               15020060  1NNN NNN                                                      #
M52420180124AMI MRU 24AMI08C              0976845                                                               15020062  1NNN NNN                                                      #
M50900000000AMI MRU 09AMI08C              0779965                                                               15020064  1NNN NNN                                                      #
M52420180124AMI MRU 24AMI08C              0775012                                                               15020066  1NNN NNN                                                      #
M50900000000AMI MRU 09AMI08C              1038056                                                               15020076  1NNN NNN                                                      #
M52420180124AMI MRU 24AMI08C              1038057                                                               15020078  1NNN NNN                                                      #
M50900000000AMI MRU 09AMI08C              1038058                                                               15020080  1NNN NNN                                                      #
M52420180124AMI MRU 24AMI08C              1038051                                                               15020082  1NNN NNN                                                      #
M50900000000AMI MRU 09AMI08C              1038052                                                               15020084  1NNN NNN                                                      #
M52420180124AMI MRU 24AMI08C              1038053                                                               15020086  1NNN NNN                                                      #
M50900000000AMI MRU 09AMI08C              1018985                                                               15020140  1NNN NNN                                                      #
M52420180124AMI MRU 24AMI08C              3039097                                                               15020150  1NNN NNN                                                      #
M52420180124AMI MRU 24AMI08C              3039024                                                               15020160  1NNN NNN                                                      #
M52420180124AMI MRU 24AMI08C              3039098                                                               15020170  1NNN NNN                                                      #
M51400000000AMI MRU 14AMI08C              3039099                                                               15020180  1NNN NNN                                                      #
M52420180124AMI MRU 24AMI08C              0771535                                                               15020278  1NNN NNN                                                      #
M51400000000AMI MRU 14AMI08C              0714962                                                               15020280  1NNN NNN                                                      #
M50900000000AMI MRU 09AMI08C              3013892                                                               43021606  1NNN NNN                                                      #
M50900000000AMI MRU 09AMI08C              0982801                                                               15020328  1NNN NNN                                                      #
M51400000000AMI MRU 14AMI08C              0589843                                                               15020336  1NNN NNN                                                      #
M50900000000AMI MRU 09AMI08C              0589844                                                               15020338  1NNN NNN                                                      #
M51400000000AMI MRU 14AMI08C              0589845                                                               15020339  1NNN NNN                                                      #
M52420180124AMI MRU 24AMI08C              0589847                                                               15020340  1NNN NNN                                                      #
M51400000000AMI MRU 14AMI08C              0589848                                                               15020341  1NNN NNN                                                      #
M52420180124AMI MRU 24AMI08C              0548159                                                               15020342  1NNN NNN                                                      #
M50900000000AMI MRU 09AMI08C              0589832                                                               15020344  1NNN NNN                                                      #
M51400000000AMI MRU 14AMI08C              0523371                                                               15020345  1NNN NNN                                                      #
M52420180124AMI MRU 24AMI08C              0589867                                                               15020346  1NNN NNN                                                      #
M52420180124AMI MRU 24AMI08C              0589866                                                               15020348  1NNN NNN                                                      #
M50900000000AMI MRU 09AMI08C              0589868                                                               15020350  1NNN NNN                                                      #
M52420180124AMI MRU 24AMI08C              0547921                                                               15020351  1NNN NNN                                                      #
M52420180124AMI MRU 24AMI08C              0589864                                                               15020352  1NNN NNN                                                      #
M52420180124AMI MRU 24AMI08C              0589865                                                               15020353  1NNN NNN                                                      #
M52420180124AMI MRU 24AMI08C              0982802                                                               15020358  1NNN NNN                                                      #
M52420180124AMI MRU 24AMI08C              0553897                                                               15020400  1NNN NNN                                                      #
M52420180124AMI MRU 24AMI08C              0855458                                                               15020401  1NNN NNN                                                      #
M52420180124AMI MRU 24AMI08C              0764962                                                               15020405  1NNN NNN                                                      #
M52420180124AMI MRU 24AMI08C              0764963                                                               15020406  1NNN NNN                                                      #
M52420180124AMI MRU 24AMI08C              0764964                                                               15020407  1NNN NNN                                                      #
M52420180124AMI MRU 24AMI08C              0762074                                                               15020408  1NNN NNN                                                      #
M52420180124AMI MRU 24AMI08C              0764965                                                                         1YNN NNN                                                      #
M52420180124AMI MRU 24AMI08C              0764966                                                               15020411  1NNN NNN                                                      #
M50900000000AMI MRU 09AMI08C              0763570                                                                         1YNN NNN                                                      #
M52420180124AMI MRU 24AMI08C              1037849                                                               15020413  1NNN NNN                                                      #
M52420180124AMI MRU 24AMI08C              0764968                                                               15020414  1NNN NNN                                                      #
M52420180124AMI MRU 24AMI08C              0764969                                                               15020415  1NNN NNN                                                      #
M50900000000AMI MRU 09AMI08C              3066407                                                               15020416  1NNN NNN                                                      #
M52420180124AMI MRU 24AMI08C              0904518                                                               15020417  1NNN NNN                                                      #
M52420180124AMI MRU 24AMI08C              3054240                                                               15020420  1NNN NNN                                                      #
M52420180124AMI MRU 24AMI08C              0764972                                                               15020421  1NNN NNN                                                      #
M50900000000AMI MRU 09AMI08C              0764973                                                               15020422  1NNN NNN                                                      #
M51300000000AMI MRU 13AMI08C              0764985                                                               43001129  1NNN NNN                                                      #
M50900000000AMI MRU 09AMI08C              3052043                                                               15020424  1NNN NNN                                                      #
M52420180124AMI MRU 24AMI08C              0764986                                                               15020426  1NNN NNN                                                      #
M52420180124AMI MRU 24AMI08C              3000597                                                               15020427  1NNN NNN                                                      #
M50900000000AMI MRU 09AMI08C              0934885                                                               15020430  1NNN NNN                                                      #
M52420180124AMI MRU 24AMI08C              0764976                                                               15020431  1NNN NNN                                                      #
M52420180124AMI MRU 24AMI08C              3054366                                                               15020432  1NNN NNN                                                      #
M52420180124AMI MRU 24AMI08C              0904650                                                               15020433  1NNN NNN                                                      #
M52420180124AMI MRU 24AMI08C              0764975                                                               15020434  1NNN NNN                                                      #
M50900000000AMI MRU 09AMI08C              3008446                                                               15020435  1NNN NNN                                                      #
M52420180124AMI MRU 24AMI08C              0764983                                                               15020436  1NNN NNN                                                      #
M52420180124AMI MRU 24AMI08C              0764987                                                               15020437  1NNN NNN                                                      #
M52420180124AMI MRU 24AMI08C              3066228                                                               15020440  1NNN NNN                                                      #
M52420180124AMI MRU 24AMI08C              0764988                                                               15020441  1NNN NNN                                                      #
M52420180124AMI MRU 24AMI08C              0934958                                                               15020442  1NNN NNN                                                      #
M50900000000AMI MRU 09AMI08C              0764990                                                               15020443  1NNN NNN                                                      #
M50900000000AMI MRU 09AMI08C              0693127                                                               15020444  1NNN NNN                                                      #
M52420180124AMI MRU 24AMI08C              3044454                                                               15020445  1NNN NNN                                                      #
M52420180124AMI MRU 24AMI08C              0693129                                                               15020446  1NNN NNN                                                      #
M50900000000AMI MRU 09AMI08C              0765121                                                               15020447  1NNN NNN                                                      #
M52420180124AMI MRU 24AMI08C              0693131                                                               15020448  1NNN NNN                                                      #
M50900000000AMI MRU 09AMI08C              3026310                                                               15020449  1NNN NNN                                                      #
M52420180124AMI MRU 24AMI08C              0602650                                                               15020450  1NNN NNN                                                      #
M52420180124AMI MRU 24AMI08C              0693132                                                               15020451  1NNN NNN                                                      #
M52420180124AMI MRU 24AMI08C              0693133                                                                         1YNN NNN                                                      #
M52420180124AMI MRU 24AMI08C              0693134                                                               15020453  1NNN NNN                                                      #
M50900000000AMI MRU 09AMI08C              0693136                                                               15020454  1NNN NNN                                                      #
M50900000000AMI MRU 09AMI08C              0693135                                                               15020455  1NNN NNN                                                      #
M52420180124AMI MRU 24AMI08C              0693137                                                               15020456  1NNN NNN                                                      #
M52420180124AMI MRU 24AMI08C              0693138                                                               15020457  1NNN NNN                                                      #
M52420180124AMI MRU 24AMI08C              0693139                                                               15020458  1NNN NNN                                                      #
M52420180124AMI MRU 24AMI08C              0693140                                                               15020459  1NNN NNN                                                      #
M52420180124AMI MRU 24AMI08C              0524796                                                               15020462  1NNN NNN                                                      #
M52420180124AMI MRU 24AMI08C              3025728                                                               15020463  1NNN NNN                                                      #
M52420180124AMI MRU 24AMI08C              3013701                                                               15020464  1NNN NNN                                                      #
M52420180124AMI MRU 24AMI08C              0764961                                                               15020470  1NNN NNN                                                      #
M52420180124AMI MRU 24AMI08C              0548809                                                               15020472  1NNN NNN                                                      #
M52420180124AMI MRU 24AMI08C              3024367                                                               15020473  1NNN NNN                                                      #
M50900000000AMI MRU 09AMI08C              0513347                                                               15020474  1NNN NNN                                                      #
M50900000000AMI MRU 09AMI08C              0513352                                                               15020475  1NNN NNN                                                      #
M52420180124AMI MRU 24AMI08C              0513349                                                               15020476  1NNN NNN                                                      #
M52420180124AMI MRU 24AMI08C              0521300                                                               15020477  1NNN NNN                                                      #
M52420180124AMI MRU 24AMI08C              3027657                                                               15020478  1NNN NNN                                                      #
M52420180124AMI MRU 24AMI08C              3026856                                                               15020480  1NNN NNN                                                      #
